:100000000C942A000C9447000C9447000C94470071
:100010000C9447000C9447000C9447000C949716DE
:100020000C9447000C9447000C9447000C94470034
:100030000C9447000C9447000C9447000C94470024
:100040000C9447000C9447000C9447000C94470014
:100050000C94470011241FBECFE5D8E0DEBFCDBF12
:1000600012E0A0E6B0E0EAE4F6E402C005900D92EA
:10007000A233B107D9F718E0A2E3B2E001C01D92A4
:10008000A934B107E1F70E9401220C9423230C94B8
:100090000000EF92FF920F931F937B018C0120E0F1
:1000A00030E040E05FE40E94190388238CF0C8012F
:1000B000B70120E030E040E05FE40E94C1010E940F
:1000C00049039B01AC01205030404040504806C0DD
:1000D000C801B7010E9449039B01AC01B901CA01E3
:1000E0001F910F91FF90EF900895A0E0B0E0EBE733
:1000F000F0E00C94E322DC012B01FA019C91923098
:1001000008F439C1EB018881823008F433C194309E
:1001100069F4843009F02FC111969C91119789815F
:10012000981709F428C1ADEBB0E025C1843009F47B
:1001300021C18230A9F4923009F01DC19A01AD01AC
:1001400088E0EA010990AE01E90109929E0181501F
:10015000C1F7E201898111969C918923818308C1AD
:10016000923009F407C112962D903C901397EB0141
:100170008A819B811496AD90BD90CD90DC901797AD
:10018000EC80FD800E811F819101281B390BB90184
:1001900037FF04C066277727621B730B6032710537
:1001A0000CF061C0121613066CF537014801062EDB
:1001B00004C096948794779467940A94D2F721E0C8
:1001C00030E040E050E004C0220F331F441F551FB1
:1001D0006A95D2F721503040404050402E213F21B7
:1001E00040235123211531054105510521F021E01E
:1001F00030E040E050E079018A01E628F72808293C
:1002000019293CC0232BD1F1260E371E350146019A
:10021000062E04C096948794779467940A94D2F734
:1002200021E030E040E050E004C0220F331F441FC3
:10023000551F6A95D2F721503040404050402A2146
:100240003B214C215D21211531054105510521F04E
:1002500021E030E040E050E059016A01A628B728CB
:10026000C828D9280BC0821593052CF01C01AA249C
:10027000BB24650103C0EE24FF24870111969C91E5
:10028000D20111968C91981709F445C0992339F041
:10029000A80197012A193B094C095D0906C0A6016E
:1002A00095012E193F09400B510B57FD08C01182D3
:1002B0003382228224833583468357831DC081E0A5
:1002C00081833382228288279927DC01821B930B4A
:1002D000A40BB50B84839583A683B7830DC0220F2F
:1002E000331F441F551F24833583468357838281E0
:1002F000938101979383828324813581468157813D
:10030000DA01C9010197A109B1098F5F9F4FAF4F72
:10031000BF4328F30BC0918333822282EA0CFB1C7B
:100320000C1D1D1DE482F5820683178383E0808304
:10033000248135814681578157FF1AC0C901AA27F8
:1003400097FDA095BA2F81709070A070B0705695EF
:10035000479537952795822B932BA42BB52B848318
:100360009583A683B7838281938101969383828349
:10037000DF0101C0D201CD01CDB7DEB7E2E10C94BF
:10038000FF22A0E2B0E0E7ECF1E00C94EF226983F9
:100390007A838B839C832D833E834F835887E9E048
:1003A000EE2EF12CEC0EFD1ECE010196B7010E943F
:1003B0003A058E010F5E1F4FCE010596B8010E94CF
:1003C0003A058A8991E089278A8BC701B801AE0175
:1003D000475E5F4F0E9475000E946504A096E6E0AC
:1003E0000C940B23A0E2B0E0E8EFF1E00C94EF22D4
:1003F00069837A838B839C832D833E834F835887C5
:10040000F9E0EF2EF12CEC0EFD1ECE010196B701A6
:100410000E943A058E010F5E1F4FCE010596B8016E
:100420000E943A05C701B801AE01475E5F4F0E94C6
:1004300075000E946504A096E6E00C940B23A0E2F0
:10044000B0E0E5E2F2E00C94E32269837A838B83E7
:100450009C832D833E834F835887CE010196BE0136
:10046000675F7F4F0E943A05CE010596BE016F5E21
:100470007F4F0E943A059985923088F089898230B1
:10048000C8F0943019F4823051F404C0843029F457
:10049000923081F48DEB90E0C6C0923049F420E0B8
:1004A0009A858A89981321E02A87CE010996BBC0D4
:1004B000823049F420E09A858A89981321E02A8BBA
:1004C000CE014196B0C02D843E844F8458886D88FB
:1004D0007E888F88988CEE24FF248701AA24BB2471
:1004E000650140E050E060E070E0E0E0F0E0C10174
:1004F00081709070892BE9F0E60CF71C081D191D1E
:100500009A01AB012A0D3B1D4C1D5D1D80E090E062
:10051000A0E0B0E0E614F7040805190520F481E036
:1005200090E0A0E0B0E0BA01A901480F591F6A1F8E
:100530007B1FAA0CBB1CCC1CDD1C97FE08C081E0F5
:1005400090E0A0E0B0E0A82AB92ACA2ADB2A3196B6
:10055000E032F10549F0660C771C881C991C569412
:10056000479437942794C3CFFA85EA892B893C892D
:100570008B859C85280F391F2E5F3F4F17C0CA01FE
:1005800081709070892B61F016950795F794E79428
:1005900080E090E0A0E0B0E8E82AF92A0A2B1B2BC3
:1005A00076956795579547952F5F3F4F77FDE7CF36
:1005B0000CC0440F551F661F771F17FD4160EE0CDE
:1005C000FF1C001F111F21503040403090E05907A0
:1005D00090E0690790E4790760F32B8F3C8FDB0193
:1005E000CA018F779070A070B07080349105A1051A
:1005F000B10561F447FD0AC0E114F10401051105DC
:1006000029F0405C5F4F6F4F7F4F40781A8EFE1786
:1006100011F081E08A8F4D8F5E8F6F8F78A383E01A
:10062000898FCE0149960E946504A096E2E10C9460
:10063000FF22A8E1B0E0EFE1F3E00C94EF22698340
:100640007A838B839C832D833E834F83588789E0F5
:10065000E82EF12CEC0EFD1ECE010196B7010E9492
:100660003A058E010F5E1F4FCE010596B8010E941C
:100670003A058985823040F08989823028F0C701A7
:10068000B8010E94B20501C08FEF6896E6E00C94B5
:100690000B23ACE0B0E0EFE4F3E00C94F3226983C9
:1006A0007A838B839C83CE010196BE016B5F7F4F63
:1006B0000E943A058D81823061F1823050F18430A0
:1006C00021F48E81882351F12EC02F81388537FD8A
:1006D00020C06E812F3131051CF06623F9F023C054
:1006E0008EE190E0821B930B29853A854B855C85D2
:1006F00004C056954795379527958A95D2F7662376
:10070000B1F050954095309521953F4F4F4F5F4F39
:100710000EC020E030E040E050E009C02FEF3FEF96
:100720004FEF5FE704C020E030E040E050E8B9015F
:10073000CA012C96E2E00C940F23A8E0B0E0E3EAB3
:10074000F3E00C94EB227B018C01611571058105AE
:10075000910519F482E0898360C083E089838EE18A
:10076000C82ED12CDC82CB82ED82FE820F831887CB
:10077000C801B7010E941604FC013197F7FF3BC086
:10078000222733272E1B3F0B57016801022E04C07E
:10079000D694C794B794A7940A94D2F740E050E057
:1007A00060E070E081E090E0A0E0B0E004C0880F7D
:1007B000991FAA1FBB1F2A95D2F70197A109B1095A
:1007C0008E219F21A023B1230097A105B10521F01F
:1007D00041E050E060E070E04A295B296C297D2906
:1007E0004D835E836F8378878EE190E08E1B9F0B35
:1007F0009C838B8312C0309781F00E2E04C0EE0CC8
:10080000FF1C001F111F0A94D2F7ED82FE820F8396
:100810001887CE1ADF0ADC82CB821A82CE010196BB
:100820000E9465042896EAE00C940723EF92FF9259
:100830000F931F937B018C0180E0E81680E0F8069F
:1008400081E0080780E0180788F48FEFE816F104CC
:100850000105110531F028F088E090E0A0E0B0E05B
:1008600017C080E090E0A0E0B0E012C080E0E816A1
:1008700080E0F80680E0080781E0180728F088E1AA
:1008800090E0A0E0B0E004C080E190E0A0E0B0E043
:1008900020E230E040E050E0281B390B4A0B5B0BB4
:1008A00004C016950795F794E7948A95D2F7F70157
:1008B000EB53FF4F8081281B310941095109C901C0
:1008C0001F910F91FF90EF900895DF92EF92FF92AA
:1008D0000F931F93FC01E480F58006811781D1807E
:1008E0008081823048F480E090E0A0E1B0E0E82A26
:1008F000F92A0A2B1B2BA5C0843009F49FC0823033
:1009000021F4EE24FF24870105C0E114F104010560
:10091000110519F4E0E0F0E096C0628173819FEF69
:10092000623879070CF05BC022E83FEF261B370BDB
:100930002A3131052CF020E030E040E050E02AC0C0
:10094000B801A701022E04C0769567955795479583
:100950000A94D2F781E090E0A0E0B0E004C0880FF4
:10096000991FAA1FBB1F2A95D2F70197A109B109A8
:100970008E219F21A023B1230097A105B10521F06D
:1009800081E090E0A0E0B0E09A01AB01282B392B88
:100990004A2B5B2BDA01C9018F779070A070B07081
:1009A00080349105A105B10539F427FF09C0205C09
:1009B0003F4F4F4F5F4F04C0215C3F4F4F4F5F4F42
:1009C000E0E0F0E02030A0E03A07A0E04A07A0E431
:1009D0005A0710F0E1E0F0E079018A0127C06038A1
:1009E000710564F5FB01E158FF4FD801C7018F770E
:1009F0009070A070B07080349105A105B10539F4F4
:100A0000E7FE0DC080E490E0A0E0B0E004C08FE31A
:100A100090E0A0E0B0E0E80EF91E0A1F1B1F17FFD0
:100A200005C016950795F794E794319687E01695DB
:100A30000795F794E7948A95D1F705C0EE24FF2433
:100A40008701EFEFF0E06E2F679566276795902F8F
:100A50009F77D794DD24D7948E2F8695492F462BE8
:100A6000582F5D29B701CA011F910F91FF90EF9098
:100A7000DF900895FC01DB01408151812281622FCA
:100A80006F7770E0221F2227221F9381892F880F02
:100A9000822B282F30E0991F9927991F11969C933C
:100AA000119721153105A9F541155105610571050C
:100AB00011F482E037C082E89FEF13969C938E93E7
:100AC00012979A01AB0167E0220F331F441F551F95
:100AD0006A95D1F783E08C930DC0220F331F441F1A
:100AE000551F12968D919C911397019713969C9385
:100AF0008E931297203080E0380780E0480780E42A
:100B0000580758F314962D933D934D935C93179784
:100B100008952F3F310579F441155105610571059F
:100B200019F484E08C93089564FF03C081E08C93F2
:100B300012C01C9210C02F57304013963C932E9336
:100B4000129783E08C9387E0440F551F661F771F31
:100B50008A95D1F7706414964D935D936D937C9351
:100B6000179708951F93DC01FB019C91923008F4C4
:100B700047C08081823008F443C0943051F411960C
:100B80001C91843099F58181682F70E0611B710997
:100B90003FC0843021F0923031F48230B9F181814C
:100BA000882389F12DC011961C9111978230F1F0A4
:100BB00081811817D9F412962D913C911397828157
:100BC00093818217930794F028173907BCF0149685
:100BD0008D919D910D90BC91A02D248135814681F0
:100BE0005781281739074A075B0718F4112341F08A
:100BF0000AC082179307A407B50740F4112319F020
:100C000061E070E005C06FEF7FEF02C060E070E070
:100C1000CB011F910895882311F482B70EC0813053
:100C200021F48CB59DB59C010AC0823029F020E0EA
:100C300030E040E050E005C084B5282F30E040E0CF
:100C400050E0B901CA0108950895089510923A0834
:100C500090914308992301F5882329F40E94070BFA
:100C600088B7869534C0813061F40E94170B88B72D
:100C700082958F7080FD39C088B786958695869558
:100C800026C0823049F50E942D0B08B607FC2DC006
:100C900081E08093460229C09130F1F4882331F439
:100CA0000E940F0B08B600FC20C013C0813031F445
:100CB0000E941F0B88B78695869509C0823061F423
:100CC0000E94350B88B7829586958695837080FD46
:100CD0000CC01092460209C0833038F084E690E0E0
:100CE00060E048E024E10E94530B8091440888238F
:100CF00039F484E690E060E048E02AE00E94530B7B
:100D000008950F931F93182F10923A0800914308EB
:100D1000002311F5882339F40E94070B88B78695C4
:100D200080FD3EC015C0813061F40E94170B88B76A
:100D300082958F7080FD34C088B78695869586959C
:100D40001CC0823081F50E942D0B08B607FC28C01C
:100D500081E08093460230C0013029F5882331F4C8
:100D60000E940F0B08B600FC1BC017C0813051F465
:100D70000E941F0B88B78695869580FD11C0109341
:100D800046021AC0823079F40E94350B88B78295EA
:100D900086958695837080FD03C0009346020CC043
:100DA0001092460209C0133038F084E690E060E00B
:100DB00047E024E10E94530B80914408882339F4D2
:100DC00084E690E060E047E02AE00E94530B1F9128
:100DD0000F910895882321F4809139080E9481069B
:100DE0000895982F80913A088130A9F4992311F43D
:100DF00082B708C0913019F42CB53DB503C09230CC
:100E000009F484B510923202109233021092340227
:100E1000109235020DC0992311F482B712C091309F
:100E200019F48CB59DB50DC0923011F484B509C08C
:100E3000933038F084E690E060E046E024E10E94E0
:100E4000530B80914408882339F484E690E060E0F5
:100E500046E02AE00E94530B0895EF92FF920F9311
:100E60001F93882311F482B709C0813021F48CB517
:100E70009DB57C0105C0823031F484B5E82EFF2495
:100E800000E010E00CC0833038F084E690E060E0D1
:100E900043E024E10E94530BEE24FF24870180915C
:100EA0003E0290913F02A0914002B09141028E1506
:100EB0009F05A007B10738F484E690E060E043E0C6
:100EC00025E10E94530B80914408882339F484E67D
:100ED00090E060E043E02AE00E94530B80914408D8
:100EE000823039F484E690E060E043E02FE20E9433
:100EF000530BB701C8011F910F91FF90EF90089518
:100F0000CF92DF92EF92FF921F93182FC0903B0871
:100F1000D0903C08E0903D08F0903E080E942D07DC
:100F2000C61AD70AE80AF90A133038F084E690E0C6
:100F300060E044E024E10E94530B80913E029091D6
:100F40003F02A0914002B09141028C159D05AE0573
:100F5000BF0538F484E690E060E044E025E10E94BB
:100F6000530B80914408882339F484E690E060E0D4
:100F700044E02AE00E94530B80914408823039F407
:100F800084E690E060E044E02FE20E94530BB6015B
:100F9000C7011F91FF90EF90DF90CF9008959F922F
:100FA000AF92BF92CF92DF92EF92FF920F931F9377
:100FB000982E5A016B0140933B0850933C08609374
:100FC0003D0870933E0820913202309133024091E7
:100FD00034025091350260E072E18AE790E00E94AD
:100FE000A622209336023093370240933802509362
:100FF000390261E070E080E090E00E94A622209338
:101000003A0230933B0240933C0250933D0281E010
:10101000981609F447C0981628F082E0981609F04F
:10102000C4C084C080E091E0A0E0B0E080933E02C4
:1010300090933F02A0934002B093410299278D2DD7
:101040007C2D6B2D0E949D037B018C0160933108E8
:101050007093320880933308909334080E944900BB
:101060000E949D039B01AC01C801B7010E94C10110
:1010700020E030E040E853E40E941F029B01AC01F5
:1010800060E070E080E893E40E94C1010E944900A2
:1010900060933F0870934008809341089093420802
:1010A00062BF83C080E090E0A1E0B0E080933E02A8
:1010B00090933F02A0934002B0934102B60188276B
:1010C00099270E949D037B018C01609331087093E6
:1010D000320880933308909334080E9449000E949C
:1010E0009D039B01AC01C801B7010E94C10120E032
:1010F00030E040E857E40E941F029B01AC0160E031
:1011000070E080E897E40E94C1010E94490060936A
:101110003F087093400880934108909342086CBD4B
:10112000672F782F892F99276DBD3FC080E091E010
:10113000A0E0B0E080933E0290933F02A093400273
:10114000B093410299278D2D7C2D6B2D0E949D031C
:101150007B018C01609331087093320880933308CF
:10116000909334080E9449000E949D039B01AC01AA
:10117000C801B7010E94C10120E030E040E853E41B
:101180000E941F029B01AC0160E070E080E893E4E4
:101190000E94C1010E94490060933F08709340087B
:1011A000809341089093420864BD80913A08882357
:1011B00099F48091420290914302A0914402B0912F
:1011C00045020196A11DB11D8093420290934302F6
:1011D000A0934402B093450282E0891540F484E66E
:1011E00090E060E04FEC57E024E10E94530B8091C7
:1011F0003E0290913F02A0914002B09141028A15B7
:101200009B05AC05BD0540F484E690E060E04FEC42
:1012100057E025E10E94530B80914408882341F454
:1012200084E690E060E04FEC57E02AE00E94530B28
:1012300080914408823041F484E690E060E04FEC15
:1012400057E02FE20E94530B1F910F91FF90EF90F8
:10125000DF90CF90BF90AF909F900895CF93DF9392
:10126000EC018881882309F084C08981882319F0E2
:10127000813051F403C083B7877F02C083B7886091
:1012800083BF83B78F7B83BF8A81843009F440C0DA
:10129000853040F4813041F18130A0F0823009F096
:1012A00087C12CC0873009F447C0883020F48630CD
:1012B00009F07EC137C0883009F448C0893009F090
:1012C00077C14DC083B78B7F83BF83B78D7F83BFCB
:1012D00083B78E7F83BF1092320210923302109236
:1012E00034021092350264C183B78B7F83BF83B70A
:1012F0008D7F83BF83B7816083BFFAC083B78B7F45
:1013000083BF83B7826083BF83B78E7F83BFFEC0F6
:1013100083B78B7F83BF83B7826083BF83B78160CE
:1013200083BF10C183B7846083BF83B78D7F83BFC2
:1013300083B78E7F83BF22C183B7846083BF83B7A7
:101340008D7F83BF83B7816083BF26C183B78460ED
:1013500083BF83B7826083BF83B78E7F08C083B7A4
:10136000846083BF83B7826083BF83B7816083BF9C
:101370001FC1813009F081C08981882319F0813033
:10138000B1F409C08FB58E7F8FBD8FB58D7F8FBDB6
:101390008EB5877F08C08FB58E7F8FBD8FB58D7F4F
:1013A0008FBD8EB588608EBD8EB58F7E8EBD8A81D5
:1013B000843091F1853040F48130D1F0813090F06B
:1013C000823009F0F5C01EC08730D1F1883020F49A
:1013D000863009F0EDC02AC08830E1F1893009F08B
:1013E000E7C041C08EB58B7F8EBD8EB58D7F37C077
:1013F0008EB58B7F8EBD8EB58D7F8EBD8EB5816097
:101400008EBD76C08EB58B7F8EBD8EB582608EBD53
:101410008EB58E7F8EBD7AC08EB58B7F8EBD8EB51C
:1014200082608EBD8EB581608EBD8CC08EB58460AD
:101430008EBD8EB58D7F8EBD8EB58E7F8EBD9EC0CE
:101440008EB584608EBD8EB58D7F8EBD8EB581606C
:101450008EBDA2C08EB584608EBD8EB582608EBDFD
:101460008EB58E7F08C08EB584608EBD8EB58260CD
:101470008EBD8EB581608EBD9BC0823009F098C054
:101480008981882319F0813051F403C085B5877FA5
:1014900002C085B5886085BD85B58F7B85BD8A8195
:1014A0008330C9F1843028F48130C9F0823028F5C6
:1014B0000CC0853009F44BC08530D8F1863009F472
:1014C00054C0873009F074C05EC085B58B7F85BD80
:1014D00085B58D7F85BD85B58E7F85BD69C085B598
:1014E0008B7F85BD85B58D7F85BD85B5816085BDCB
:1014F00080E092E1AAE7B0E053C085B58B7F85BD5F
:1015000085B5826085BD85B58E7F85BD88E090E01C
:10151000A0E0B0E045C085B58B7F85BD85B5826014
:1015200085BD85B5816085BD80E290E0A0E0B0E03A
:1015300037C085B5846085BD85B58D7F85BD85B592
:101540008E7F85BD80E490E0A0E0B0E029C085B545
:10155000846085BD85B58D7F85BD85B5816085BD80
:1015600080E890E0A0E0B0E01BC085B5846085BD58
:1015700085B5826085BD85B58E7F85BD80E091E0B3
:10158000A0E0B0E00DC085B5846085BD85B5826002
:1015900085BD85B5816085BD80E094E0A0E0B0E0C8
:1015A0008093320290933302A0933402B0933502B9
:1015B00080914408813039F484E690E060E041E0B5
:1015C0002DE00E94530B80914408882339F484E66F
:1015D00090E060E041E02AE00E94530B209739F44C
:1015E00084E690E060E041E026E10E94530B109217
:1015F0003A0810923F081092400810924108109249
:101600004208888180933908DF91CF91089589B786
:10161000816089BF089589B78E7F89BF089589B792
:10162000826089BF089589B78D7F89BF089589B782
:10163000846089BF089589B78B7F89BF089589B772
:10164000806189BF89B7886089BF089589B78F7E17
:1016500089BF89B7886089BF089589B7806489BFC9
:10166000089589B78F7B89BF089589B7806889BF3E
:10167000089589B78F7789BF0895009741F0E62FC5
:10168000F0E0EE0FFF1FE15BFD4F91838083089533
:10169000009741F0E62FF0E0EE0FFF1FE95BFD4FF2
:1016A00091838083089581E00895282F277086957F
:1016B00086958695813049F0813028F0823039F066
:1016C0008330B1F40DC089B303C086B301C083B3C6
:1016D00090E002C0959587952A95E2F7817008956C
:1016E00080B390E002C0959587952A95E2F78170C6
:1016F0000895382F3770869586958695813029F123
:10170000813038F0823009F43CC0833009F06EC07B
:1017100053C0613059F42BB381E090E002C0880FD0
:10172000991F3A95E2F7282B2BBB0895662309F001
:101730005DC02BB381E090E002C0880F991F3A95FD
:10174000E2F7809582238BBB0895613059F428B36A
:1017500081E090E002C0880F991F3A95E2F7282BAC
:1017600028BB0895662309F041C028B381E090E0CA
:1017700002C0880F991F3A95E2F78095822388BBB3
:101780000895613059F425B381E090E002C0880FDC
:10179000991F3A95E2F7282B25BB0895662331F56A
:1017A00025B381E090E002C0880F991F3A95E2F7D7
:1017B0008095822385BB0895613059F422B381E07E
:1017C00090E002C0880F991F3A95E2F7282B22BBC0
:1017D0000895662359F422B381E090E002C0880F97
:1017E000991F3A95E2F78095822382BB0895382F9E
:1017F0003770869586958695813029F1813038F04D
:10180000823009F43CC0833009F06EC053C06130AF
:1018100059F42AB381E090E002C0880F991F3A95ED
:10182000E2F7282B2ABB0895662309F05DC02AB38E
:1018300081E090E002C0880F991F3A95E2F7809509
:1018400082238ABB0895613059F427B381E090E088
:1018500002C0880F991F3A95E2F7282B27BB0895FD
:10186000662309F041C027B381E090E002C0880FF1
:10187000991F3A95E2F78095822387BB08956130DE
:1018800059F424B381E090E002C0880F991F3A9583
:10189000E2F7282B24BB0895662331F524B381E0B9
:1018A00090E002C0880F991F3A95E2F78095822355
:1018B00084BB0895613059F421B381E090E002C007
:1018C000880F991F3A95E2F7282B21BB08956623CC
:1018D00059F421B381E090E002C0880F991F3A9536
:1018E000E2F78095822381BB0895813049F08130F1
:1018F00028F0823039F0833041F406C08BB308956C
:1019000088B3089585B3089582B30895813049F06E
:10191000813028F0823039F0833041F406C06BBB4F
:10192000089568BB089565BB089562BB0895813032
:1019300049F0813028F0823039F0833041F406C01C
:101940006ABB089567BB089564BB089561BB0895A1
:101950000F931F938C01FC0185810E94550B90E031
:10196000A0E0B0E0F80120813181428153818223DF
:101970009323A423B523048004C0B695A795979517
:1019800087950A94D2F71F910F910895FC018581E4
:1019900090E0A0E0B0E02081318142815381822338
:1019A0009323A423B523048004C0B695A7959795E7
:1019B00087950A94D2F70E94790B0895382F3770D3
:1019C000869586958695813099F0813028F0823011
:1019D000D9F0833081F524C02BB381E090E002C0C0
:1019E000880F991F3A95E2F728272BBB8BB30895F0
:1019F00028B381E090E002C0880F991F3A95E2F782
:101A0000282728BB88B3089525B381E090E002C061
:101A1000880F991F3A95E2F7282725BB85B30895CB
:101A200022B381E090E002C0880F991F3A95E2F757
:101A3000282722BB82B30895FF920F931F93CF9361
:101A4000DF93FF24C0E0D0E00F2D10E0F801EE504E
:101A5000FE4F8F2D60810E94F70B0E5E1D4F8F2D64
:101A6000F80160810E94790BF3942196C032D10570
:101A700059F7DF91CF911F910F91FF900895CF9368
:101A8000DF93EC0160E08A81882309F461E08881BA
:101A90000E94790B60E08A81882309F461E08981E2
:101AA0000E94790BDF91CF910895CF93DF93EC01E2
:101AB00060E08A81882309F461E088810E94790BC3
:101AC00089816A810E94790BDF91CF910895CF932C
:101AD000DF93EC0160E08A81882309F461E0898169
:101AE0000E94790B88816A810E94790BDF91CF91E6
:101AF00008950F931F938C01FC0180810E94550B68
:101B0000F801818390E0882309F491E0892F1F91E7
:101B10000F9108950F931F938C01FC0180810E9407
:101B2000DE0CF80181831F910F910895FC01118251
:101B3000808160E00E94790B0895FC0181E081833F
:101B4000808161E00E94790B08951F93182F682F00
:101B5000617083E00E94790B612F6695617084E06B
:101B60000E94790B16951695612F617085E00E9491
:101B7000790B1695117086E0612F0E94790B1F91E9
:101B80000895FF920F931F93F82E80E061E00E946A
:101B9000790B81E060E00E94790B82E061E00E94B5
:101BA000790B8F2D82958F700E94A50D00ED17E0A7
:101BB000C8010197F1F782E060E00E94790BC8014B
:101BC0000197F1F782E061E00E94790B8F2D0E946E
:101BD000A50DC8010197F1F782E060E00E94790B42
:101BE000C8010197F1F71F910F91FF900895FF929F
:101BF0000F931F93F82E80E060E00E94790B81E044
:101C000060E00E94790B82E061E00E94790B8F2DE9
:101C100082958F700E94A50D00ED17E0C801019715
:101C2000F1F782E060E00E94790BC8010197F1F7BB
:101C300082E061E00E94790B8F2D0E94A50DC80102
:101C40000197F1F782E060E00E94790BC8010197EB
:101C5000F1F71F910F91FF9008950F931F9384EF59
:101C600091E028EC30E0F9013197F1F70197D9F7CD
:101C700080E060E00E94790B81E060E00E94790BD7
:101C800082E061E00E94790B82E00E94A50D00EDE8
:101C900017E0C8010197F1F782E060E00E94790B3C
:101CA000C8010197F1F715E8812F8A95F1F788E2CD
:101CB0000E94F70D812F8A95F1F78CE00E94F70DB5
:101CC0001A95F1F781E00E94F70D00EA1FE0C801C4
:101CD0000197F1F786E00E94F70DC8010197F1F72F
:101CE0001F910F910895089581E00E94F70D0895C6
:101CF000813019F4862F805809C0823019F4862F5C
:101D0000805404C0833029F4862F80570E94F70D39
:101D10000895843021F4862F80530E94F70D089592
:101D2000DF92EF92FF920F931F93CF93DF938C017B
:101D3000F62EE42ED22E862F880F880F880F805C17
:101D40000E94F70DC0E0D0E0F801EC0FFD1F80818C
:101D50000E94C10D2196C830D105B1F78E2D6D2D91
:101D60000E94780E8F2D0E94C10DDF91CF911F919F
:101D70000F91FF90EF90DF9008950F931F938C01C8
:101D800064E670E00E947F226AE070E00E947F2299
:101D9000862F805D0E94C10DC8016AE070E00E943C
:101DA0007F22805D0E94C10D1F910F9108950F93B6
:101DB0001F938C0160E177E20E947F2268EE73E05E
:101DC0000E947F22862F805D0E94C10DC80168EEAF
:101DD00073E00E947F2264E670E00E947F22862FDB
:101DE000805D0E94C10DC80164E670E00E947F2200
:101DF0006AE070E00E947F22862F805D0E94C10D04
:101E0000C8016AE070E00E947F22805D0E94C10DDF
:101E10001F910F910895EF92FF921F93DF93CF933D
:101E2000CDB7DEB7A0970FB6F894DEBF0FBECDBF1B
:101E3000382F882359F1FE01319680E2DF011D928F
:101E40008A95E9F720E0AF01E22FF0E0EE0FFF1FE7
:101E5000E40FF51F832F817090E0C09691838083FB
:101E60002F5F369589F7122F7E010894E11CF11C33
:101E70000BC0E12FF0E03197EE0FFF1FEE0DFF1DBD
:101E800080810E94C10D1150112399F7A0960FB6C1
:101E9000F894DEBF0FBECDBFCF91DF911F91FF90B1
:101EA000EF900895CF92DF92EF92FF920F931F93DE
:101EB000DF93CF93CDB7DEB7A0970FB6F894DEBF10
:101EC0000FBECDBF8C017E010894E11CF11C80E2A5
:101ED000F70111928A95E9F71016110674F540E0A2
:101EE000E42FF0E0EE0FFF1FEE0DFF1DC8016AE0CA
:101EF00070E00E94932290E0C096918380834F5FB0
:101F0000C8016AE070E00E9493228B01611571059F
:101F100039F7142F7E010894E11CF11C0BC0E12F4E
:101F2000F0E03197EE0FFF1FEE0DFF1D80810E9444
:101F3000C10D1150112399F73CC001151105B1F1E4
:101F40008DE20E94C10D40E0670150E3E52EF12CC7
:101F5000E42FF0E0EE0FFF1FEC0DFD1DC8016AE05D
:101F600070E00E9493229701281B3109318320835E
:101F70004F5FC8016AE070E00E9493228B016115F7
:101F8000710531F7142F7E010894E11CF11C0BC080
:101F9000E12FF0E03197EE0FFF1FEE0DFF1D808166
:101FA0000E94C10D1150112399F703C080E30E94D4
:101FB000C10DA0960FB6F894DEBF0FBECDBFCF9176
:101FC000DF911F910F91FF90EF90DF90CF900895D8
:101FD0001F93CF93DF93EC0110E003C00E94C10D6B
:101FE0001F5FFE01E10FF11D80818823B9F7DF91AA
:101FF000CF911F910895BF92CF92DF92EF92FF92FF
:102000000F931F93CF93DF9395EDC92E91E0D92EB7
:10201000BB24BA94EE24FF24F601808160E00E9484
:10202000790B09ED11E0E701CC0FDD1FCC0FDD1FAF
:10203000CB53DE4FF80180810E94550B882339F481
:10204000B880F80180810E94550B8823D1F30F5F7F
:102050001F4F2196F1E00D3D1F0761F7F6018191B9
:102060006F0161E00E94790B0894E11CF11CF4E01F
:10207000EF16F10489F68B2DDF91CF911F910F910F
:10208000FF90EF90DF90CF90BF9008958091550220
:10209000882321F080915602811181E0109255022F
:1020A0001092560208958F929F92AF92BF92CF9254
:1020B000DF92EF92FF920F931F93182F8AE062E056
:1020C00040E00E94BD1A909358028093570287E522
:1020D000882E82E0982E8BEC90E160E670E045E57A
:1020E00050E09401012FEE24FF24CC24DD24AA2407
:1020F000BB240E9485208FE890E168E670E045E50A
:1021000050E094010E9485201F910F91FF90EF9065
:10211000DF90CF90BF90AF909F908F900895CF9217
:10212000DF92EF92FF920F931F93DF93CF9300D034
:10213000CDB7DEB77C011A82198200E010E06E0193
:102140000894C11CD11C1FC0F70180819181B60188
:1021500040E050E020E00E94D019813011F001E011
:1021600011C0002351F40FB6F8940F9280915602DB
:102170008F5F809356020F900FBE89819A810196DE
:102180009A8389831F5F1330FCF288EC90E00E94F1
:10219000861F10E0D9CF9F92AF92BF92CF92DF926D
:1021A000EF92FF920F931F93DF93CF9300D0CDB7A1
:1021B000DEB7982EC92EEE24FF24DD245E0108949C
:1021C000A11CB11C23C0F80180819181B50140E0C0
:1021D00050E020E00E941D198130C1F429813A812C
:1021E0002E153F0519F0DD24D3940CC0DD2051F4E9
:1021F0000FB6F8940F92809155028F5F809355022D
:102200000F900FBE79010894E11CF11C092D1C2DC3
:10221000F801808191810E94F3168823A1F684EB56
:1022200090E00E94861FF2CFEF92FF920F931F93D0
:10223000DC011596ED91FC911697E680F7808701F9
:10224000045F1F4FC8010E9492158AE892E0B8010E
:102250000E94411520E0E0915902F0915A02D70105
:1022600056969C918689981708F021E0822F1F913D
:102270000F91FF90EF900895FF920F931F93CF93CC
:10228000DF9399E0F92E21C0F894E0918F02F0914C
:10229000900206811781C8010C960E9492157894CD
:1022A000E8012296CE010E949215F801968980914C
:1022B0005B02891710F490935B029F9DC00111246B
:1022C0008E599D4FBE010E94411580918A0288233C
:1022D000D9F60E94FE1A20915C0230915D02821BA9
:1022E000930B90935F0280935E0289E0F82E53C0B7
:1022F00001969093610280936002215030403093A8
:102300005F0220935E02892B09F03EC02091860275
:102310003091870280918802909189029093870280
:102320008093860230938902209388022DC0058015
:10233000F681E02DC681D781209160023091610243
:102340008A819B812817390730F1F8948E010E5F3E
:102350001F4FC8010E9492158C899D89892B21F0FD
:10236000CE010C960E94921578949E8980915B0212
:10237000891710F490935B029F9DC00111248E5920
:102380009D4FB8010E944115E0918602F0918702AD
:102390008081882361F620915E0230915F028091F6
:1023A0006002909161022115310509F0A1CF90934F
:1023B0005D0280935C0290915B0229E006C0992344
:1023C00019F410925B0232C09150929FD0011124F7
:1023D000AE59BD4F8C91882391F390935B02119677
:1023E000ED91FC9112970280F381E02D1296FC93FF
:1023F000EE931197CD010396E817F90731F4828126
:10240000938112969C938E9311971196ED91FC9166
:1024100012970680F781E02DF0935A02E09359025B
:1024200020813181CF016789F9010995DF91CF9131
:102430001F910F91FF9008950F931F93CF93DF93F8
:10244000EB010091600210916102080F191F809149
:10245000590290915A0202960E949215E0915902F7
:10246000F0915A021383028380916002909161027D
:10247000BF016E5F7F4F0817190728F4809188020B
:102480009091890204C080918602909187020E94F7
:102490006015209749F06091590270915A02645F6B
:1024A0007F4FCE010E946015DF91CF911F910F9158
:1024B0000895AF92BF92CF92DF92EF92FF920F9367
:1024C0001F93CF93DF936C01B62EA42E8AE190E088
:1024D0000E947414EC01009711F48FEF59C08091A1
:1024E000590290915A02892B21F5D0935A02C09338
:1024F000590282E692E00E942D158BE692E00E943E
:102500002D1524E7E22E22E0F22EC7010E942D15A0
:102510000DE712E0C8010E942D158AE892E00E94A2
:102520002D15F0928702E0928602109389020093A3
:102530008802EB2CBB2011F0EE24E394198E188E48
:10254000EE8AAF8AFE01C192D1928F01CF010E9423
:102550003D15CE010C960E943D15D987C887DB8BAF
:10256000CA8B82E090E08E1991099D878C879E89A5
:1025700080915B02891710F490935B0289E0989F29
:10258000C00111248E599D4FB8010E94411581E070
:10259000DF91CF911F910F91FF90EF90DF90CF903F
:1025A000BF90AF900895FC010FB6F8940F92208170
:1025B00031816095709562237323718360830F90DE
:1025C0000FBEC9010895FC01808191810895BA016F
:1025D0000E94D3120895CF93DF93EC010E94F81A62
:1025E00006C08F81988560E072E00E94BF1B8A81DF
:1025F0008823B9F7CE010E9464140E94E11DDF9187
:10260000CF910895CF92DF92EF92FF920F931F9395
:10261000CF93DF938B01EC0185E0E82EF12CEC0EDB
:10262000FD1E0E94F81AEF81F88588819981802B20
:10263000912B9983888300E010E024C0D280C3806E
:1026400080819181BC016070AC015070288139811A
:1026500092FD05C024233523232B31F40FC02423FE
:1026600035232417350751F470FF02C0042B152BB6
:10267000688179817260CF010E94BF1B8D2D9C2DD6
:102680009C01F901EE15FF05C9F6009510958881AA
:10269000998180239123998388830E94E11D8881F9
:1026A0009981DF91CF911F910F91FF90EF90DF9073
:1026B000CF900895BA010E9402130895AF92BF927D
:1026C000CF92DF92EF92FF920F931F93CF93DF93FE
:1026D0007B01A42EB22E68018C010E94F81AF80129
:1026E00020813181C70182239323BB2021F4892BD0
:1026F00009F05AC004C08E159F0509F455C0C114D5
:10270000D10459F4E9011BC0C7018095909582233B
:102710009323F801918380834AC0AA2019F060E0D6
:1027200071E002C060E070E0B11074606E297F2932
:10273000C8010296A6010E94821DC0E0D0E00E945E
:10274000E11DCD2829F1882311F40E949A160E94D8
:10275000A71B91FD1BC00FB6F8940F92F801808162
:102760009181970128233923BB2019F4232B19F5D4
:102770000BC02E153F0541F41EC0E094F094E822F2
:10278000F922F801F182E0820F900FBEEC01D070C7
:10279000CE01DF91CF911F910F91FF90EF90DF90CD
:1027A000CF90BF90AF900895AA2009F0ADCFE90176
:1027B000CC24DD24C4CFAA2001F7E6CF8F929F92CC
:1027C000AF92BF92CF92DF92EF92FF920F931F933F
:1027D000CF93DF93F82EE92E8B015A014901C82EC1
:1027E000D92E0E94F81AF601C081D1818F2D9E2D1D
:1027F000B8010E940213C02BD12BC5018C239D234D
:102800008A159B0569F4950120953095F601808124
:10281000918182239323918380838824992410C0FB
:102820008114910451F0B5017560C6010296A401AE
:102830000E94821DC0E0D0E003C0F601C081D181BA
:102840000E94E11D8928F9F0882311F40E949A164C
:102850000E94A71B9C0191FD14C00FB6F8940F9223
:10286000F60120813181C501822393238A159B05BE
:1028700031F4A094B094A222B322B182A0820F902E
:102880000FBEE901D070CE01DF91CF911F910F9162
:10289000FF90EF90DF90CF90BF90AF909F908F9080
:1028A0000895CF93DF938BE090E00E947414EC01C5
:1028B000009731F0FC0111921192CF010E942D1569
:1028C000CE01DF91CF910895089510929402109255
:1028D0009302089523E135E0809193029091940250
:1028E000281B390BC9010895CF93DF93EC010E9497
:1028F000F81A8091950290919602892B31F488E91B
:1029000092E09093960280939502209193023091E9
:102910009402CE01820F931F45E08331940770F437
:102920002817390758F4C0919502D0919602C20F2A
:10293000D31F909394028093930202C0C0E0D0E032
:102940000E94E11DCE01DF91CF9108959F92AF9239
:10295000BF92CF92DF92EF92FF920F931F93DF937C
:10296000CF9300D000D0CDB7DEB78C01EE24FF248A
:102970009BE7A92EB12CC12CD12C9924939403C090
:1029800081E0E82EF12CA982BA82CB82DC82898197
:102990009A81AB81BC81895B9B46AC4FBF4F8983D9
:1029A0009A83AB83BC8369817A818B819C812DEF73
:1029B0003FEF4FEF5FEF0E94602269837A838B8342
:1029C0009C8369817A818B819C8127E030E040E0A3
:1029D00050E00E94C822C901DA0189839A83AB833F
:1029E000BC8389819A81AB81BC818B519747AE4F63
:1029F000BF4F31F6E114F10409F0C2CF0FB6F894DD
:102A00000F92F80190820F900FBEBDCF8091AB075F
:102A10001092AB07811181E00895AF92BF92CF92DF
:102A2000DF92EF92FF920F93082F86EA94E160E71E
:102A300070E045E550E02BEA37E0EE24FF24CC249B
:102A4000DD24AA24BB240E9485200F91FF90EF90E3
:102A5000DF90CF90BF90AF900895FC019C012D5F57
:102A60003F4F328321838FEF9FEF9483838336839D
:102A700025833087278310820895FC0111861086F4
:102A80000895AC01FC01A181B281FB01B383A28353
:102A900014968D919C911597958384831496ED914E
:102AA000FC9115977383628315967C936E931497AC
:102AB000FB0151874087FA0180818F5F80830895F1
:102AC000CF93DF939C01EB01488159818FEF4F3FFA
:102AD000580721F4F901A781B0850DC0D9011396DB
:102AE0001296ED91FC9113978081918148175907B7
:102AF00010F0DF01F5CF1296ED91FC911397FB8357
:102B0000EA83D583C483BD83AC831396DC93CE93D1
:102B1000129739872887F90180818F5F8083DF9141
:102B2000CF910895CF93DF93DC011896CD91DC917E
:102B3000199712964D915C91139714968D919C91D3
:102B40001597FA019583848314962D913C911597DE
:102B5000F9015383428389819A818A179B0711F473
:102B60003A83298319961C921E9218978881815066
:102B70008883DF91CF910895FC0191E1908322E257
:102B8000229383E3829362937293129280E88293FA
:102B9000129282E0829383E0829384E0829385E0C4
:102BA000829386E0829387E0829388E0829389E033
:102BB000829380E18293929382E1829383E1829374
:102BC00084E1829385E1829386E1829387E1829317
:102BD00088E1829389E1829380E2829381E2829309
:102BE000229383E282934293529386E2829387E216
:102BF000829388E2829389E2829380E3829381E3E5
:102C000082933197CF0108951BBC8CE78ABD8BE07E
:102C10008EBD89B7806189BFA091AC07B091AD0727
:102C2000CD91CDBFDD91DEBFFF91EF91DF91CF91CF
:102C3000BF91AF919F918F917F916F915F914F91D4
:102C40003F912F911F910F91FF90EF90DF90CF90C8
:102C5000BF90AF909F908F907F906F905F904F90BC
:102C60003F902F901F900F900FBE0F90089581E01E
:102C7000089508950F920FB6F8940F921F921124A1
:102C80002F923F924F925F926F927F928F929F927C
:102C9000AF92BF92CF92DF92EF92FF920F931F936A
:102CA0002F933F934F935F936F937F938F939F9354
:102CB000AF93BF93CF93DF93EF93FF93A091AC07B4
:102CC000B091AD070DB60D920EB60D920E94331C59
:102CD000882311F00E94121BA091AC07B091AD07A0
:102CE000CD91CDBFDD91DEBFFF91EF91DF91CF910F
:102CF000BF91AF919F918F917F916F915F914F9114
:102D00003F912F911F910F91FF90EF90DF90CF9007
:102D1000BF90AF909F908F907F906F905F904F90FB
:102D20003F902F901F900F900FBE0F9008950E941C
:102D30003A1618950F920FB6F8940F921F9211241D
:102D40002F923F924F925F926F927F928F929F92BB
:102D5000AF92BF92CF92DF92EF92FF920F931F93A9
:102D60002F933F934F935F936F937F938F939F9393
:102D7000AF93BF93CF93DF93EF93FF93A091AC07F3
:102D8000B091AD070DB60D920EB60D920E94121BBA
:102D9000A091AC07B091AD07CD91CDBFDD91DEBF65
:102DA000FF91EF91DF91CF91BF91AF919F918F9163
:102DB0007F916F915F914F913F912F911F910F9153
:102DC000FF90EF90DF90CF90BF90AF909F908F904B
:102DD0007F906F905F904F903F902F901F900F903B
:102DE0000FBE0F9008950FB6F8940F92FC01828DDC
:102DF0000F900FBE0895FC010FB6F8940F92928DBC
:102E00000F900FBE838D891B0895FC01828D08955C
:102E1000FC01828D90E0882309F491E0892F0895C8
:102E2000FC01928D20E0838D981709F421E0822F18
:102E300008951F93CF93DF93EC01142F4C8D4423FF
:102E4000E1F11123B1F48C819D8150E00E941A239D
:102E50008C8D2C813D81280F311D3D832C838A81EF
:102E60009B812817390748F1888199819D838C833C
:102E700024C08E819F8150E00E941A238C8D90E0A7
:102E800044275527481B590B8E819F81840F951F1E
:102E90009F838E83288139818217930730F48A813A
:102EA0009B81840F951F9F838E83123031F48A8D0E
:102EB000882319F08A8D81508A8F8A8D8F5F8A8F3F
:102EC00080E0DF91CF911F910895FC01562FA72F2D
:102ED000248D2223B9F086819781820F911D9783DB
:102EE0008683228133818217930720F0808191812C
:102EF00097838683448D66817781852F9A2F50E052
:102F00000E941A2308950F931F93CF93DF93EC0130
:102F10008A8D882341F00E811F81CE010E946517A2
:102F20001F830E8381E0DF91CF911F910F91089550
:102F30000F931F93CF93DF93FB018A01EC018A8DDE
:102F4000882361F18C8D2E813F81280F311D3F83B5
:102F50002E838A819B812817390720F088819981E7
:102F60009F838E838A8D81508A8F4C8D6E817F8165
:102F7000CF0150E00E941A23F8018081882369F470
:102F80008885882351F0CE0108960E941411882369
:102F900021F081E0F801808301C081E0DF91CF91D1
:102FA0001F910F9108951F93CF93DF93142FEC017E
:102FB0009A8D8B8D981788F4CE0140E00E941917E6
:102FC000112359F48989882341F0CE0141960E944A
:102FD0001411482F811141E0142F812FDF91CF91DF
:102FE0001F910895CF93DF93FB01EC01F8948A8D34
:102FF000882371F44115510541F06196CA01BE0163
:103000000E941C1278948CEF2FC0789480E02CC022
:103010007894F8948A8D882331F18C8D2E813F81AC
:10302000280F311D3F832E838A819B812817390702
:1030300020F0888199819F838E838A8D81508A8F29
:103040004C8D6E817F81CF0150E00E941A238885CC
:10305000882341F0CE0108960E941411882311F0B4
:103060008BEF01C081E07894DF91CF910895CF93E9
:10307000DF93EC01F8940FB6F8940F928A8D9B8D34
:103080000F900FBE891771F44115510541F0289634
:10309000CA01BE010E941C1278948CEF1BC0789468
:1030A00080E018C07894F8948A8D891710F080E039
:1030B00010C0CE0140E00E9419178989882341F091
:1030C000CE0141960E941411882311F08BEF01C0AC
:1030D00081E07894DF91CF910895CF93DF93EC0155
:1030E00088819981009711F00E946414CE010E949A
:1030F0006414DF91CF9108950F931F93CF93DF93C3
:103100008A01EC018A8D8823E9F0CE010E946517BF
:103110008A8D81508A8F8D8D8F3F81F48885882399
:1031200081F0CE0108960E94F31B882351F001150F
:10313000110539F081E0F801808304C08D8D8F5F27
:103140008D8F81E0DF91CF911F910F9108950F93A3
:103150001F93CF93DF938A01EC019A8D8B8D981783
:1031600020F0223011F080E023C0CE01422F0E94D7
:103170001917882331F00115110519F081E0F801C4
:1031800080838E8D8F3F81F48989882381F0CE01E1
:1031900041960E94F31B882351F00115110539F067
:1031A00081E0F801808304C08E8D8F5F8E8F81E077
:1031B000DF91CF911F910F9108950F931F93CF939C
:1031C000DF93EC010FB6F8940F928C010F5E1F4F46
:1031D0000DC08989882369F0C8010E94F31B8823E8
:1031E00011F00E949D1B8E8D81508E8F8E8D181632
:1031F00084F38FEF8E8F0F900FBE0FB6F8940F925F
:103200008E01085F1F4F0DC08885882369F0C801B3
:103210000E94F31B882311F00E949D1B8D8D81500D
:103220008D8F8D8D181684F38FEF8D8F0F900FBEBD
:10323000DF91CF911F910F9108957F928F929F926E
:10324000AF92BF92CF92DF92EF92FF920F931F93B4
:10325000DF93CF9300D000D00F92CDB7DEB75B01E4
:103260005D834C83722E8C0191E1C92ED12CC00E4E
:10327000D11E20E07E010894E11CF11C84E0882E20
:10328000912C8C0E9D1E01C021E00FB6F8940F9278
:10329000F801828D882339F1E680F780C801B501F5
:1032A0000E946517772071F4F801828D8150828F1A
:1032B00080858823A1F0C80108960E94F31B813005
:1032C00071F40BC0F801F782E6828189882339F016
:1032D000C6010E94F31B882311F00E949A160F90DA
:1032E0000FBE81E04AC08C819D81892B19F40F901B
:1032F0000FBE42C0222319F4C7010E945B1B0F902E
:103300000FBE0E94F81A0FB6F8940F92F801858D3F
:103310008F3F09F4158EF801868D8F3F09F4168EC4
:103320000F900FBEC701B4010E94661B8823F9F4F9
:103330000FB6F8940F92F801828D0F900FBE88237C
:1033400081F46C817D81C6010E94B51DC8010E9477
:10335000DD180E94E11D882309F096CF0E949A167D
:1033600093CFC8010E94DD180E94E11D8DCFC801D6
:103370000E94DD180E94E11D80E00F900F900F90D9
:103380000F900F90CF91DF911F910F91FF90EF90D1
:10339000DF90CF90BF90AF909F908F907F900895D7
:1033A0006F927F929F92AF92BF92CF92DF92EF92F5
:1033B000FF920F931F93DF93CF9300D000D00F9213
:1033C000CDB7DEB76B015D834C83922E8C0148E054
:1033D000E42EF12CE80EF91E20E05E010894A11CF9
:1033E000B11C34E0632E712C6C0E7D1E01C021E0F7
:1033F0000FB6F8940F92F801928D838D981718F0FC
:10340000F2E09F16C9F4C801B601492D0E941917B0
:10341000982FF8018189882339F0C80141960E94CC
:10342000F31B813029F402C0992311F00E949A16EF
:103430000F900FBE81E04CC08C819D81892B19F4C7
:103440000F900FBE44C0222319F4C5010E945B1BDC
:103450000F900FBE0E94F81A0FB6F8940F92F80161
:10346000858D8F3F09F4158EF801868D8F3F09F405
:10347000168E0F900FBEC501B3010E94661B8823F4
:1034800009F50FB6F8940F92F801928D0F900FBEC8
:10349000F801838D981781F46C817D81C7010E94AA
:1034A000B51DC8010E94DD180E94E11D882309F0A6
:1034B0009ECF0E949A169BCFC8010E94DD180E94E1
:1034C000E11D95CFC8010E94DD180E94E11D80E03A
:1034D0000F900F900F900F900F90CF91DF911F9151
:1034E0000F91FF90EF90DF90CF90BF90AF909F90A3
:1034F0007F906F900895CF93DF93EC010FB6F8940F
:103500000F92EC8D2B8DE29FC001112448815981CF
:10351000840F951F9B838A831A8E5D834C8330E0D2
:1035200021503040F0E02E9FC0012F9F900D3E9F14
:10353000900D1124480F591F5F834E838FEF8D8F9D
:103540008E8F662361F48885882389F0CE010896E2
:103550000E94F31B813059F40E949A1608C0CE01D4
:1035600008960E942D15CE0141960E942D150F90B0
:103570000FBE81E0DF91CF9108950F931F93CF93FA
:10358000DF93182F062F8823E1F08FE190E00E944F
:103590007414EC010097A9F0019FC0011124019659
:1035A0000E94741499838883009741F01B8F0C8FBD
:1035B000CE0161E00E947B1A9E0105C0CE010E94EF
:1035C000641420E030E0C901DF91CF911F910F9189
:1035D00008950FB6F8940F92009729F4E091AC0784
:1035E000F091AD0701C0FC010F900FBE86890895D0
:1035F0008091B3078F5F8093B30708950FB6F89457
:103600000F922091AF073091B0070F900FBEC90104
:1036100008952091AF073091B007C90108958091B6
:10362000B50708958091B307882321F081E0809346
:10363000AE0708951092AE0705C08091B207815081
:103640008093B2078091B20790E0FC0123E0EE0F77
:10365000FF1F2A95E1F7E80FF91FE754F84F808123
:10366000882359F39091B20789E0989FD0011124E3
:10367000A754B84F1196ED91FC9112970280F381F7
:10368000E02D1296FC93EE931197CD010396E81767
:10369000F90731F48281938112969C938E9311974E
:1036A0001196ED91FC911297868197819093AD07C9
:1036B0008093AC070895FC018091B10780838091CD
:1036C000AF079091B007928381830895FC01DB01DD
:1036D0000FB6F8940F924091AF075091B0076D91DB
:1036E0007C9111978FEF6F3F780709F19091B107A7
:1036F0008081981729F08181928148175907C8F471
:1037000021813281CA01821B930B8617970788F4A7
:10371000241B350B260F371F2D933C938091B10747
:1037200080838091AF079091B0079283818380E07E
:1037300001C081E00F900FBE089581E08093AE0735
:1037400008952091AC073091AD07C9010895E0912B
:10375000AC07F091AD0784859585A091AC07B09139
:10376000AD07E091AC07F091AD07468927E030E066
:10377000241B31091D963C932E931C9708950F939B
:103780001F93CF93DF93FC01706871836083C681C0
:10379000D7810E9492158E010E5F1F4FC8010E94B3
:1037A00092159E898091B207891710F49093B20701
:1037B00089E0989FC00111248754984FB8010E9456
:1037C0004115E091AC07F091AD079E898689891774
:1037D00010F080E003C081E08093AE07DF91CF91CD
:1037E0001F910F9108950F931F93CF93DF93DC01E7
:1037F0001596ED91FC911697C681D7818E01045FD5
:103800001F4FC8010E9492158091B3078823A1F42D
:103810008E010E5F1F4FC8010E9492159E898091F4
:10382000B207891710F49093B20789E0989FC001FE
:1038300011248754984F02C08EE098E0B8010E948E
:103840004115E091AC07F091AD079E8986898917F3
:1038500010F080E003C081E08093AE07DF91CF914C
:103860001F910F910895CF92DF92EF92FF920F93E5
:103870001F93CF93DF938091B307882309F0A7C0EC
:103880008091AF079091B00701969093B007809315
:10389000AF07E090AF07F090B007E114F10479F5BD
:1038A00020910A0830910B0880910C0890910D0826
:1038B00090930B0880930A0830930D0820930C080E
:1038C0008091B1078F5F8093B107E0910A08F09172
:1038D0000B088081882319F48FEF9FEF0CC0E091D3
:1038E0000A08F0910B080580F681E02D0680F7812B
:1038F000E02D828193819093DE018093DD018091A0
:10390000DD019091DE01E816F90608F449C0DD24D6
:1039100049E0C42EE0910A08F0910B0880818823C9
:1039200019F48FEF9FEF0EC0E0910A08F0910B0899
:103930000580F681E02DC681D7818A819B81E816BA
:10394000F90628F49093DE018093DD012AC08E01F0
:103950000E5F1F4FC8010E9492158C899D89892B8B
:1039600021F0CE010C960E9492159E898091B2079B
:10397000891710F49093B2079C9DC00111248754BD
:10398000984FB8010E944115E091AC07F091AD0746
:103990009E898689981708F4BDCFDD24D394BACFC9
:1039A000DD24E091AC07F091AD07868990E0FC0141
:1039B00033E0EE0FFF1F3A95E1F7E80FF91FE754E8
:1039C000F84F8081823048F0DD24D39406C0809186
:1039D000B4078F5F8093B407DD248091AE078823FE
:1039E00011F0DD24D3948D2DDF91CF911F910F9194
:1039F000FF90EF90DF90CF900895DF92EF92FF92CB
:103A00000F931F93CF93DF93EC018A859B858052A0
:103A1000984091F58C899D8928E08E30920761F15C
:103A2000892B51F533C0DE88E091AC07F091AD07EA
:103A3000068952E0E52EF12CEC0EFD1EC7010E9416
:103A400092156E898091B207861710F46093B207C1
:103A500010E0D01608F011E089E0689FC001112441
:103A60008754984FB7010E94411507C02C968EE0ED
:103A700098E0BE010E94411510E0812FDF91CF91A7
:103A80001F910F91FF90EF90DF9008958091B30701
:103A9000882349F2EBCFCF93DF93EC01E091AC07A1
:103AA000F091AD07938382838091AF079091B00727
:103AB000C817D90768F480910C0890910D0860919F
:103AC000AC077091AD076E5F7F4F0E94601517C005
:103AD00080910A0890910B086091AC077091AD0736
:103AE0006E5F7F4F0E9460158091DD019091DE0135
:103AF000C817D90720F4D093DE01C093DD01DF9110
:103B0000CF910895CF93DF93EA01E091AC07F09154
:103B1000AD077068758764876091AC077091AD07D9
:103B2000645F7F4F0E9441158091AC079091AD0773
:103B300002960E9492158FEFCF3FD80759F46091FB
:103B4000AC077091AD076E5F7F4F80E298E00E94F6
:103B5000411508C08091AF079091B0078C0F9D1F51
:103B60000E944B1DDF91CF910895CF93DF93EB011E
:103B70006091AC077091AD07645F7F4F0E94601544
:103B80008091AC079091AD0702960E9492158FEF3D
:103B9000CF3FD80759F46091AC077091AD076E5FC5
:103BA0007F4F80E298E00E94411508C08091AF07E6
:103BB0009091B0078C0F9D1F0E944B1DDF91CF91FC
:103BC0000895EF92FF920F931F93CF93DF930FB659
:103BD000F8940F928091B30781508093B30780913E
:103BE000B307882309F055C08091B507882359F59C
:103BF00050C0E0911308F0911408C681D781CE011E
:103C00000C960E9492158E010E5F1F4FC8010E94F4
:103C100092159E898091B207891710F49093B2078C
:103C20009E9DC00111248754984FB8010E944115F0
:103C3000E091AC07F091AD079E898689981738F01E
:103C4000F092AE0704C069E0E62EFF24F394809161
:103C50000E08882371F68091B407882369F411C097
:103C60000E94331C882311F01093AE078091B40793
:103C700081508093B40701C011E08091B40788237C
:103C800079F78091AE07813021F40E949A1681E085
:103C900001C080E00F900FBEDF91CF911F910F9177
:103CA000FF90EF9008950F931F93CF93DF93EC0154
:103CB000009709F43CC08091AC079091AD07C817FC
:103CC000D907A9F10FB6F8940F928A859B85805287
:103CD0009840F1F48C899D8928E08E309207C1F0DC
:103CE000892BB1F418C09093B20789E0989FC00166
:103CF00011248754984FB8010E944115E091AC07F8
:103D0000F091AD079E898689981710F00E949A1647
:103D10000F900FBE0CC08E010E5F1F4FC8010E9496
:103D200092159E898091B2078917E8F2DECFDF9164
:103D3000CF911F910F9108950F931F93CF93DF930E
:103D40000FB6F8940F92009729F4C091AC07D09168
:103D5000AD0701C0EC018E010E5F1F4FC8010E942C
:103D600092158C899D89892B21F0CE010C960E9499
:103D7000921580E298E0B8010E9441150F900FBEA5
:103D80008091AC079091AD07C817D907A9F480912D
:103D9000B607882319F00E949A1631C09091B50792
:103DA00080912008891729F41092AD071092AC0772
:103DB00026C00E94121B23C08091B6078823F9F009
:103DC0000FB6F8940F92E0910A08F0910B088081E9
:103DD000882319F48FEF9FEF0CC0E0910A08F0914F
:103DE0000B080580F681E02D0680F781E02D8281A9
:103DF00093819093DE018093DD010F900FBEDF91E0
:103E0000CF911F910F910895EF92FF920F931F93FF
:103E1000DF93CF930F92CDB7DEB7673008F066E03F
:103E20000FB6F8940F92009729F4E090AC07F09049
:103E3000AD0701C07C01D70156962C91261709F4D5
:103E40005BC02617A0F48091AC079091AD07E816EF
:103E5000F90611F4198215C0E091AC07F091AD0795
:103E600019828689681768F0B1E0B9830AC0809129
:103E7000AC079091AD071982E816F90611F4E1E05C
:103E8000E983D70156966C9356971C968D919C9119
:103E90001D9797FD08C087E090E0861B91091D964D
:103EA0009C938E931C9789E0289FC001112487540E
:103EB000984FF7012285338528173907C1F4870108
:103EC0000E5F1F4FC8010E949215D70156969C9114
:103ED0008091B207891710F49093B20789E0989FF8
:103EE000C00111248754984FB8010E944115B9812F
:103EF000B13011F40E949A160F900FBE0F90CF911F
:103F0000DF911F910F91FF90EF9008950F931F93F2
:103F1000CF93DF93EC010097C9F08091B3078F5FD7
:103F20008093B3070091AF071091B0078091AC0761
:103F30009091AD0702960E949215CE01800F911FBD
:103F40000E944B1D0E94E11D882311F40E949A16C5
:103F5000DF91CF911F910F910895CF93DF93FC01D3
:103F6000EB018091B3078F5F8093B3072091AF0778
:103F70003091B00780819181C80FD91F2817390768
:103F800028F4C817D90728F080E008C0C817D90757
:103F900020F080E02C173D0708F481E0D183C08336
:103FA000882351F08091AC079091AD0702960E9452
:103FB0009215CE010E944B1D0E94E11D882311F431
:103FC0000E949A16DF91CF9108950F931F93CF937C
:103FD000DF930FB6F8940F92009729F4C091AC07C5
:103FE000D091AD0701C0EC018E010E5F1F4FC801DB
:103FF0000E9492158C899D89892B21F0CE010C9607
:104000000E94921587E198E0B8010E9441158091C5
:10401000B7078F5F8093B7078091B8078F5F809352
:10402000B8070F900FBE8091B607882349F18091A1
:10403000AC079091AD07C817D90719F40E949A16DA
:104040001FC00FB6F8940F92E0910A08F0910B0888
:104050008081882319F48FEF9FEF0CC0E0910A084C
:10406000F0910B080580F681E02D0680F781E02DA8
:10407000828193819093DE018093DD010F900FBECA
:10408000DF91CF911F910F910895F8941092B60788
:104090000E94391608950F931F932CC08091B30787
:1040A0008F5F8093B307109117080E94E11D1123C1
:1040B00009F10FB6F8940F92E0911C08F0911D08D9
:1040C00006811781C80102960E9492158091B5075A
:1040D00081508093B5078091B70781508093B707CF
:1040E0000F900FBEF8018789908D0E946414C8015B
:1040F0000E9464148091B707882381F68091B907E4
:104100008230C0F30E949A16F5CF2F923F924F92C1
:104110005F927F928F929F92AF92BF92CF92DF92E7
:10412000EF92FF920F931F93CF93DF931C01962E74
:10413000872E5A012901702EE6018DE290E00E943F
:1041400074146C01009779F0209721F4C5010E9446
:104150007414EC01F601D08FC78B209709F0CCC006
:10416000C6010E9464148FEFB5C0808159968C936C
:1041700059978081882329F09F5F31961196943159
:10418000A1F7F60114A6072DF6E0F71508F406E0EE
:10419000F601068BE2E08E2E912C8C0C9D1CC40146
:1041A0000E943D15C6010C960E943D15F601D18670
:1041B000C08687E090E0801B910995878487D38A29
:1041C000C28A0894A108B108CE018A0D9B1DB101D5
:1041D000A2010E94BC15F60191838083E114F104D1
:1041E00019F0F701D182C0820FB6F8940F92809136
:1041F000B5078F5F8093B5078091AC079091AD07AD
:10420000892B99F5D092AD07C092AC078091B50784
:104210008130D1F5C9EBD7E0CE010E942D1529964A
:10422000F7E0C83FDF07C1F778EFE72E77E0F72E1A
:10423000C7010E942D1501E018E0C8010E942D154C
:104240008EE098E00E942D1587E198E00E942D15E0
:1042500080E298E00E942D15F0920B08E0920A0887
:1042600010930D0800930C080FC08091B6078823A7
:1042700059F4E091AC07F091AD078689781620F0EB
:10428000D092AD07C092AC078091B8078F5F809342
:10429000B807F60196898091B207891710F49093B8
:1042A000B20789E0989FC00111248754984FB40148
:1042B0000E9441150F900FBE8091B607882349F0E8
:1042C000E091AC07F091AD078689871510F40E9444
:1042D0009A1681E0DF91CF911F910F91FF90EF909F
:1042E000DF90CF90BF90AF909F908F907F905F9026
:1042F0004F903F902F900895892D982D9C01F901A2
:10430000D60190E032CFAF92BF92CF92DF92EF9280
:10431000FF920F938BE490E268E770E045E550E090
:1043200020E030E000E0EE24FF24CC24DD24AA24A9
:10433000BB240E948520813049F4F8948093B6070D
:104340001092B0071092AF070E9404160F91FF90D1
:10435000EF90DF90CF90BF90AF9008958DE790E001
:104360000E94562217BA87EE91E00E94790D8130A3
:10437000D1F784E890E00E94562280912D08909118
:104380002E0861E070E00E94021390933008809341
:104390002F0884E890E00E945622E5CF1F9382E91F
:1043A00090E00E9456228BE990E00E94E80F80E0A6
:1043B00040E050E060E070E00E94CF070E94FB0FF9
:1043C000182F8F3FD9F30E94C10D1D33B9F782E03A
:1043D00060E00E94780E86EA90E00E94E80FEECF3F
:1043E0000E941C0D0E942D0E8FEE91E00E942E095E
:1043F00080E895E20E94352283EB90E00E945622ED
:104400000895AF92BF92CF92DF92EF92FF920F93F7
:104410000E94F0210E94511490932E0880932D0841
:104420008EEC91E260E070E044E650E020E030E0A5
:1044300001E0F9E2EF2EF8E0FF2ECC24DD24AA24DF
:10444000BB240E9485208EEA91E260E070E044E6A1
:1044500050E020E030E002E0EBE2EE2EE8E0FE2E5D
:104460000E9485200E948321FFCF9C0140E050E004
:1044700084E0220F331F441F551F8A95D1F760E057
:1044800072E18AE790E00E94A6222150304029B9CB
:1044900030BD86E880BD88E18AB908955F9BFECF74
:1044A0008CB108955D9BFECF8CB90895FC0104C0CA
:1044B0005D9BFECF8CB9319680818823C9F7089522
:1044C000629FD001739FF001829FE00DF11D649FF8
:1044D000E00DF11D929FF00D839FF00D749FF00D84
:1044E000659FF00D9927729FB00DE11DF91F639F25
:1044F000B00DE11DF91FBD01CF0111240895AA1BC4
:10450000BB1B51E107C0AA1FBB1FA617B70710F0BE
:10451000A61BB70B881F991F5A95A9F780959095F0
:10452000BC01CD01089597FB092E07260AD077FD1F
:1045300004D0E5DF06D000201AF4709561957F4F16
:104540000895F6F7909581959F4F0895A1E21A2E50
:10455000AA1BBB1BFD010DC0AA1FBB1FEE1FFF1F27
:10456000A217B307E407F50720F0A21BB30BE40B77
:10457000F50B661F771F881F991F1A9469F76095BE
:104580007095809590959B01AC01BD01CF01089578
:1045900097FB092E05260ED057FD04D0D7DF0AD091
:1045A000001C38F450954095309521953F4F4F4F62
:1045B0005F4F0895F6F790958095709561957F4FC0
:1045C0008F4F9F4F08952F923F924F925F926F921D
:1045D0007F928F929F92AF92BF92CF92DF92EF9293
:1045E000FF920F931F93CF93DF93CDB7DEB7CA1B14
:1045F000DB0B0FB6F894DEBF0FBECDBF09942A883F
:10460000398848885F846E847D848C849B84AA84E6
:10461000B984C884DF80EE80FD800C811B81AA8173
:10462000B981CE0FD11D0FB6F894DEBF0FBECDBF3E
:10463000ED010895FB01DC0102C001900D92415093
:0A4640005040D8F70895F894FFCF1A
:10464A0051436F6E734E42005150726F644E420076
:10465A00496E744D6174680049444C4500446F6F5B
:10466A00720D0A00446F6F7220436C6F7365640D9C
:10467A000A004B65795061640D0A00456E746572D3
:10468A002054696D650054696D6520456E746572C4
:10469A00656400537461727465640D0A0000000059
:1046AA0000000000000001020203030303040404E3
:1046BA0004040404040505050505050505050505A5
:1046CA000505050505060606060606060606060685
:1046DA000606060606060606060606060606060670
:1046EA000606060606070707070707070707070755
:1046FA000707070707070707070707070707070740
:10470A00070707070707070707070707070707072F
:10471A00070707070707070707070707070707071F
:10472A000707070707080808080808080808080804
:10473A0008080808080808080808080808080808EF
:10474A0008080808080808080808080808080808DF
:10475A0008080808080808080808080808080808CF
:10476A0008080808080808080808080808080808BF
:10477A0008080808080808080808080808080808AF
:10478A00080808080808080808080808080808089F
:10479A00080808080808080808080808080808088F
:1047AA0008080808083738392F3435362A313233A1
:1047BA002D6F303D2B1011121314151617FFFF0E13
:1047CA00010C00010D0001080109010B010A010099
:1047DA0000020101010101010101000000000101C3
:1047EA0001010101010100000000010101010101B3
:1047FA0001010000000000000000010000000000AC
:10480A000000000000000101010101010101000096
:02481A0000009C
:00000001FF
